S01D00004175746F6D617469635F4578666F6C696174696F6E2E737265637F
S11300000C9434000C9420080C949F010C9451001F
S11300100C9451000C9451000C9451000C94B907A9
S11300200C9451000C9451000C9451000C94510008
S11300300C9451000C9451000C9451000C945100F8
S11300400C9488000C9451000C9451000C94F5000D
S11300500C9451000C9422010C9451000C94510006
S11300600C9451000C94510011241FBECFEFD8E022
S1130070DEBFCDBF12E0A0E0B1E0E4EAF6E102C0E9
S113008005900D92AC3AB107D9F726E0ACEAB2E09C
S113009001C01D92A03EB207E1F70E9444080C94EF
S11300A0500B0C940000FC0140814423E1F0319694
S11300B020E030E0A091BC02B0E0AD52BB4F4C93C5
S11300C08091BC028F5F8093BC028091BC022F5F41
S11300D03F4F41914111EECF232B29F0E1ECF0E0A9
S11300E08081886280830895CF93DF93CDB7DEB794
S11300F0FE01359661917191AF018BEC92E00E9403
S113010085088BEC92E00E945300DF91CF91089513
S11301101F920F920FB60F9211242F933F934F9378
S11301205F936F937F938F939F93AF93BF93EF935B
S1130130FF938091D3069091D4064091C6025091CA
S1130140C7026091C8027091C902AA2797FDA095C1
S1130150BA2FBA2FA92F982F8827840F951FA61F6F
S1130160B71F8093C6029093C702A093C802B093AE
S1130170C9028091C6029091C702A091C802B091B1
S1130180C902BB2324F48091B702813089F08091A5
S1130190C6029091C702A091C802B091C9028136EB
S11301A09142A046B10584F08091B702823061F497
S11301B01092B7024F9908C080E091E09F938F930B
S11301C00E9474000F900F90FF91EF91BF91AF9137
S11301D09F918F917F916F915F914F913F912F915B
S11301E00F900FBE0F901F9018951F920F920FB68D
S11301F00F9211248F939F93EF93FF939091BD02DD
S11302008091BC02981781F0E091BD02F0E0ED52BC
S1130210FB4F80818093C6008091BD028F5F8093E5
S1130220BD028091BD0205C0E1ECF0E08081877DD4
S11302308083FF91EF919F918F910F900FBE0F904C
S11302401F9018951F920F920FB60F921124AF9220
S1130250BF92CF92DF92EF92FF920F931F932F934F
S11302603F934F935F936F937F938F939F93AF933A
S11302702091BE023091BF024091C0025091C10250
S11302806091C2027091C3028091C4029091C50230
S1130290A090AE02B090AF02C090B002D090B10274
S11302A0E090B202F090B3020091B4021091B50252
S11302B00E947008A2E30E94790859F150F18091DC
S11302C078002091790090E0922B9093BB02809368
S11302D0BA027091BE026091BF025091C002409177
S11302E0C1023091C2022091C3029091C402809154
S11302F0C5027093AE026093AF025093B002409374
S1130300B1023093B2022093B3029093B40280936B
S1130310B502AF919F918F917F916F915F914F91B2
S11303203F912F911F910F91FF90EF90DF90CF900D
S1130330BF90AF900F900FBE0F901F9018951F9213
S11303400F920FB60F9211242F933F934F935F9305
S11303506F937F938F939F93AF93BF93EF93FF9389
S11303604F9926C08091BE029091BF022091C00295
S11303703091C1024091C2025091C3026091C40203
S11303807091C5027F936F935F934F933F932F9325
S11303909F938F9387E091E09F938F930E947400C3
S11303A08DB79EB70A960FB6F8949EBF0FBE8DBF49
S11303B08091B902882319F0833039F14BC04B99ED
S11303C049C07091BE026091BF025091C002409139
S11303D0C1023091C2022091C3029091C402809163
S11303E0C5027093D7066093D8065093D9064093FC
S11303F0DA063093DB062093DC069093DD068093C7
S1130400DE0681E08093B90225C04B9B23C0709126
S1130410BE026091BF025091C0024091C10230916E
S1130420C2022091C3029091C4028091C5027093CC
S1130430D7066093D8065093D9064093DA063093D2
S1130440DB062093DC069093DD068093DE0682E0D3
S11304508093B902FF91EF91BF91AF919F918F91DA
S11304607F916F915F914F913F912F910F900FBEAC
S11304700F901F901895219A209A399A3A9A529877
S113048053983B98389855985798299A289A5F9A80
S11304904198429884B584BD85B5866085BDEEE6F5
S11304A0F0E080818160808316BCE0E8F0E0808128
S11304B080648083E1E8F0E080818860808310922A
S11304C0850010928400E0EBF0E0808182608083FC
S11304D0E1EBF0E0808184608083E0E7F0E08081FC
S11304E08260808389EF8093B3001092B200E9E6C2
S11304F0F0E08081866080838DB383608DBB87E666
S11305008093C4001092C500ECE7F0E08081806421
S11305108083EAE7F0E080818F6A8083EBE7F0E094
S1130520808180831092C6021092C7021092C80282
S11305301092C9021092B70281E08093AC027894C1
S11305400895F8944198429A2FEF81EE94E0215057
S113055080409040E1F700C00000419842982FEF9E
S113056081EE94E0215080409040E1F700C000000B
S1130570E9CF8F929F92AF92BF92CF92DF92EF9288
S1130580FF920F931F93CF93DF938DE191E09F939D
S11305908F930E9474000F900F904A9933C082E4A5
S11305A091E09F938F930E94740084E08093B7023C
S11305B081E691E09F938F930E9474000F900F90B7
S11305C00F900F904A990BC01FEF21EE84E0115059
S11305D020408040E1F700C000004A9BF5CF9FEF28
S11305E0E1EE14E09150E0401040E1F700C000005B
S11305F08FE691E09F938F930E9474001092B7024C
S11306000F900F902FEF81EE94E0215080409040A6
S1130610E1F700C0000087E791E09F938F930E9469
S113062074008090BE029090BF02D091C002C0912D
S1130630C102B091C202A091C302F091C402E09140
S1130640C50283E08093B7020F900F902091BE0201
S11306503091BF024091C0025091C1026091C20228
S11306607091C3028091C4029091C502A82CB92C48
S1130670CD2EDC2EEB2EFA2E0F2F1E2F0E9470088B
S11306802F353A4E410551056105710581059105E6
S113069009F010F44A99DACF2091BE023091BF02DA
S11306A04091C0025091C1026091C2027091C30294
S11306B08091C4029091C502A82CB92CCD2EDC2EB9
S11306C0EB2EFA2E0F2F1E2F0E9470082F353A4E54
S11306D0410551056105710581059105B9F0B0F039
S11306E0E1E8F0E08081887F808388E991E09F934E
S11306F08F930E9474001FEF21EE84E0115020407C
S11307008040E1F700C000000E94A10281E08093D4
S1130710AD021092B70216BC8091C6029091C70236
S1130720A091C802B091C902BF93AF939F938F93D6
S11307308AEC91E09F938F930E9474001092AC0214
S11307400F900F900F900F900F900F90DF91CF911B
S11307501F910F91FF90EF90DF90CF90BF90AF90DB
S11307609F908F9008954F9908C081EF91E09F93D7
S11307708F930E9474000F900F908091AC028111AE
S1130780CBC08091B702882321F0833008F0C4C025
S1130790B7C0339997C04E9B4AC04A9B3DC08091D5
S11307A0C6029091C702A091C802B091C902BB23AE
S11307B09CF181E08093B7027091BE026091BF0208
S11307C05091C0024091C1023091C2022091C302F3
S11307D09091C4028091C5027093CB046093CC04C1
S11307E05093CD044093CE043093CF042093D0048F
S11307F09093D1048093D20482E08093B802419A0A
S113080042984F9989C082E092E09F938F930E940F
S113081074000F900F9008954F997EC081E192E08B
S11308209F938F930E9474000F900F90089580916E
S1130830C6029091C702A091C802B091C902813644
S11308409142A046B1059CF582E08093B702709175
S1130850BE026091BF025091C0024091C10230912A
S1130860C2022091C3029091C4028091C502709388
S1130870CB046093CC045093CD044093CE043093C6
S1130880CF042093D0049093D1048093D20481E0C8
S11308908093B8024198429A4F993EC08AE392E00D
S11308A09F938F930E9474000F900F9008954F9917
S11308B033C081E192E09F938F930E9474000F9064
S11308C00F9008954E9B0EC083E08093B7024F991A
S11308D023C08AE492E09F938F930E9474000F9048
S11308E00F90089584E08093B7024F9915C08BE56B
S11308F092E09F938F930E9474000F900F9008953D
S11309001092B7024F9908C080E091E09F938F93B3
S11309100E9474000F900F9008954F9908C08DE6BF
S113092092E09F938F930E9474000F900F90809198
S1130930AC02811111C08091B7028350823060F4FF
S11309401092B7024F9908C080E091E09F938F9373
S11309500E9474000F900F900895AF92BF92CF92AF
S1130960DF92EF92FF920F931F938091B802813030
S113097009F426C120F0823009F4C1C07FC18091FE
S1130980B7028230B1F020F4813009F465C076C139
S1130990833049F0843009F071C181E08093B8025A
S11309A04198429A6BC182E08093B802419A42987E
S11309B065C12091BE023091BF024091C0025091A6
S11309C0C1026091C2027091C3028091C4029091ED
S11309D0C502A090CB04B090CC04C090CD04D090BC
S11309E0CE04E090CF04F090D0040091D104109193
S11309F0D2040E9470082B32314041055105610533
S1130A0071058105910509F008F438C181E08093EE
S1130A10B8027091BE026091BF025091C002409131
S1130A20C1023091C2022091C3029091C40280910C
S1130A30C5027093CB046093CC045093CD044093CF
S1130A40CE043093CF042093D0049093D1048093A8
S1130A50D2044198429A12C12091BE023091BF0241
S1130A604091C0025091C1026091C2027091C302D0
S1130A708091C4029091C502A090CB04B090CC04A4
S1130A80C090CD04D090CE04E090CF04F090D00478
S1130A900091D1041091D2040E9470082B3231408D
S1130AA041055105610571058105910509F008F4B9
S1130AB0E5C082E08093B8027091BE026091BF02EB
S1130AC05091C0024091C1023091C2022091C302F0
S1130AD09091C4028091C5027093CB046093CC04BE
S1130AE05093CD044093CE043093CF042093D0048C
S1130AF09093D1048093D204419A4298BFC08091CC
S1130B00B702813009F052C02091BE023091BF0279
S1130B104091C0025091C1026091C2027091C3021F
S1130B208091C4029091C502A090CB04B090CC04F3
S1130B30C090CD04D090CE04E090CF04F090D004C7
S1130B400091D1041091D2040E9470082B323140DC
S1130B5041055105610571058105910509F008F408
S1130B608DC01092B8027091BE026091BF02509184
S1130B70C0024091C1023091C2022091C3029091FF
S1130B80C4028091C5027093CB046093CC0450934B
S1130B90CD044093CE043093CF042093D00490939B
S1130BA0D1048093D2044198429868C08091B702DE
S1130BB0833009F463C01092B802419842985EC031
S1130BC08091B702823009F051C02091BE02309169
S1130BD0BF024091C0025091C1026091C202709163
S1130BE0C3028091C4029091C502A090CB04B0903E
S1130BF0CC04C090CD04D090CE04E090CF04F0900B
S1130C00D0040091D1041091D2040E9470082C32B7
S1130C10314041055105610571058105910571F169
S1130C2068F11092B8027091BE026091BF025091B7
S1130C30C0024091C1023091C2022091C30290913E
S1130C40C4028091C5027093CB046093CC0450938A
S1130C50CD044093CE043093CF042093D0049093DA
S1130C60D1048093D2044198429808C08091B7027D
S1130C70843021F01092B802419842988091B902D0
S1130C80813019F0823099F163C02091BE02309115
S1130C90BF024091C0025091C1026091C2027091A2
S1130CA0C3028091C4029091C502A090D706B0906F
S1130CB0D806C090D906D090DA06E090DB06F09012
S1130CC0DC060091DD061091DE060E947008A9E0A2
S1130CD00E947908E9F1E0F14B9906C083E0809322
S1130CE0B9020E94B30334C01092B90231C02091FA
S1130CF0BE023091BF024091C0025091C102609186
S1130D00C2027091C3028091C4029091C502A09066
S1130D10D706B090D806C090D906D090DA06E090F5
S1130D20DB06F090DC060091DD061091DE060E94E1
S1130D307008A9E00E94790859F050F04B9B05C057
S1130D401092B9020E948D0403C083E08093B9021B
S1130D5089B185FB882780F991E089278093DF0694
S1130D609091B7028091B60298131AC02091BA02EA
S1130D703091BB028091D5069091D606281B390B81
S1130D80C901992324F488279927821B930B0B9775
S1130D903CF49091DF068091CA02981709F4E0C0F0
S1130DA08091DF06882339F080E890E09093D406A0
S1130DB08093D30606C081E090E09093D40680939C
S1130DC0D3068091B7028230C9F030F4882309F445
S1130DD05FC0813031F0B4C0833019F0843071F0D9
S1130DE0AFC028988091D3069091D40691958195AF
S1130DF091099093D4068093D30609C0289A8091D0
S1130E00D3069091D4069093D4068093D306809110
S1130E10DF068823E1F02091BA023091BB02ACE1F5
S1130E20BCE00E944E08462F572F682F792F032EBF
S1130E303AE075956795579547953A95D1F7302DD2
S1130E4040575E4F50938900409388001BC0209107
S1130E50BA023091BB02A4EEB3E00E944E08462FC2
S1130E60572F682F792F032E3AE07595679557957C
S1130E7047953A95D1F7302D4C5F5F4F50938900D9
S1130E8040938800E1E8F0E080818260808358C06C
S1130E90E1E8F0E08081887F808326B5A091D306C5
S1130EA0B091D406C090C602D090C702E090C802A8
S1130EB0F090C90230E00E945D08C60ED71EE81EFD
S1130EC0F91EC092C602D092C702E092C802F09204
S1130ED0C90216BC8091AD02882351F01092C6025B
S1130EE01092C7021092C8021092C9021092AD0269
S1130EF04F9926C08091BA029091BB029F938F9321
S1130F008FE792E09F938F930E9474008091C602B2
S1130F109091C702A091C802B091C902BF93AF9348
S1130F209F938F938DE892E09F938F930E94740018
S1130F308DB79EB70A960FB6F8949EBF0FBE8DBFAD
S1130F408091B7028093B6028091BA029091BB025D
S1130F509093D6068093D5068091DF068093CA02CB
S1130F601F910F91FF90EF90DF90CF90BF90AF90C3
S1130F7008951F920F920FB60F9211242F933F934F
S1130F804F935F936F937F938F939F93AF93BF938D
S1130F90EF93FF932091BE023091BF024091C002B3
S1130FA05091C1026091C2027091C3028091C40247
S1130FB09091C502A1E00E9464082093BE02309380
S1130FC0BF024093C0025093C1026093C202709367
S1130FD0C3028093C4029093C5020E94AD04FF91A2
S1130FE0EF91BF91AF919F918F917F916F915F919D
S1130FF04F913F912F910F900FBE0F901F90189516
S11310004F9908C08AE992E09F938F930E947400DD
S11310100F900F908091B702813011F0833079F4F2
S11310201092B70281E08093AD024F9908C080E02E
S113103091E09F938F930E9474000F900F900895F6
S11310401F920F920FB60F9211242F933F934F9339
S11310505F936F937F938F939F93AF93BF93EF931C
S1131060FF930E940008FF91EF91BF91AF919F9170
S11310708F917F916F915F914F913F912F910F903D
S11310800FBE0F901F9018950E943B020E94B90258
S1131090EAE7F0E0808180648083FFCFA29FB00103
S11310A0B39FC001A39F700D811D1124911DB29F98
S11310B0700D811D1124911D08950E944E08B7FFE3
S11310C00895821B930B08950024A7FD00942A0F12
S11310D0301D401D501D601D701D801D901D089504
S11310E02A193B094C095D096E097F09800B910B94
S11310F008950024A7FD00942A17300540055005E3
S113110060057005800590050895AEE0B0E0EBE859
S1131110F8E00C94270B8C0186E08C831A830983F6
S11311208FEF9FE79E838D83CE0101960E94A108D5
S1131130EF81F885E00FF11F10822E96E4E00C9405
S1131140430BACE0B0E0E7EAF8E00C94190B7C0147
S11311506B018A01FC0117821682838181FFBDC164
S1131160CE0101964C01F7019381F60193FD85911F
S113117093FF81916F01882309F4ABC1853239F45F
S113118093FD859193FF81916F01853229F4B70115
S113119090E00E94890AE7CF512C312C20E02032C4
S11311A0A0F48B3269F030F4803259F0833269F460
S11311B020612CC08D3239F0803339F4216026C08F
S11311C02260246023C0286021C027FD27C030EDA1
S11311D0380F3A3078F426FF06C0FAE05F9E300DEF
S11311E01124532E13C08AE0389E300D1124332E5F
S11311F020620CC08E3221F426FD6BC1206406C02F
S11312008C3611F4206802C0883641F4F60193FD4F
S1131210859193FF81916F018111C1CF982F9F7D9B
S11312209554933028F40C5F1F4FFFE3F9830DC0EE
S1131230833631F0833771F0833509F05BC022C007
S1131240F801808189830E5F1F4F44244394512CFD
S1131250540115C03801F2E06F0E711CF801A08032
S1131260B18026FF03C0652D70E002C06FEF7FEFF1
S1131270C5012C870E947E0A2C0183012C852F77BF
S1131280222E17C03801F2E06F0E711CF801A08005
S1131290B18026FF03C0652D70E002C06FEF7FEFC1
S11312A0C5012C870E94730A2C012C852068222EEC
S11312B0830123FC1BC0832D90E048165906B0F42B
S11312C0B70180E290E00E94890A3A94F4CFF501D4
S11312D027FC859127FE81915F01B70190E00E9470
S11312E0890A31103A94F1E04F1A5108411451041B
S11312F071F7E5C0843611F0893639F5F80127FF16
S113130007C060817181828193810C5F1F4F08C087
S113131060817181882777FD8095982F0E5F1F4F1C
S11313202F76B22E97FF09C09095809570956195A0
S11313307F4F8F4F9F4F2068B22E2AE030E0A401E8
S11313400E94BB0AA82EA81844C0853729F42F7E12
S1131350B22E2AE030E025C0F22FF97FBF2E8F365F
S1131360C1F018F4883579F0B4C0803719F08837A3
S113137021F0AFC02F2F2061B22EB4FE0DC08B2DF3
S11313808460B82E09C024FF0AC09F2F9660B92E2E
S113139006C028E030E005C020E130E002C020E1D2
S11313A032E0F801B7FE07C06081718182819381C8
S11313B00C5F1F4F06C06081718180E090E00E5F7A
S11313C01F4FA4010E94BB0AA82EA818FB2DFF776B
S11313D0BF2EB6FE0BC02B2D2E7FA51450F4B4FEE9
S11313E00AC0B2FC08C02B2D2E7E05C07A2C2B2DF2
S11313F003C07A2C01C0752C24FF0DC0FE01EA0D38
S1131400F11D8081803311F4297E09C022FF06C0BA
S11314107394739404C0822F867809F0739423FD27
S113142013C020FF06C05A2C731418F4530C571819
S1131430732C731468F4B70180E290E02C870E9447
S1131440890A73942C85F5CF731410F4371801C0EE
S1131450312C24FF12C0B70180E390E02C870E9456
S1131460890A2C8522FF17C021FF03C088E590E07C
S113147002C088E790E0B7010CC0822F867859F04B
S113148021FD02C080E201C08BE227FD8DE2B7019D
S113149090E00E94890AA51438F4B70180E390E033
S11314A00E94890A5A94F7CFAA94F401EA0DF11D17
S11314B08081B70190E00E94890AA110F5CF332002
S11314C009F451CEB70180E290E00E94890A3A946F
S11314D0F6CFF7018681978102C08FEF9FEF2C969C
S11314E0E2E10C94350BFC01059061507040011051
S11314F0D8F7809590958E0F9F1F0895FC01615039
S1131500704001900110D8F7809590958E0F9F1F21
S113151008950F931F93CF93DF93182F092FEB0197
S11315208B8181FD03C08FEF9FEF20C082FF10C02D
S11315304E815F812C813D81421753077CF4E88101
S1131540F9819F012F5F3F4F39832883108306C0A1
S1131550E885F985812F0995892B29F72E813F810B
S11315602F5F3F4F3F832E83812F902FDF91CF91A9
S11315701F910F910895FA01AA27283051F12031C3
S113158081F1E8946F936E7F6E5F7F4F8F4F9F4F13
S1131590AF4FB1E03ED0B4E03CD0670F781F891F55
S11315A09A1FA11D680F791F8A1F911DA11D6A0F23
S11315B0711D811D911DA11D20D009F468943F91D6
S11315C02AE0269F11243019305D3193DEF6CF01D5
S11315D00895462F4770405D4193B3E00FD0C9F79B
S11315E0F6CF462F4F70405D4A3318F0495D31FD08
S11315F04052419302D0A9F7EACFB4E0A69597955B
S1131600879577956795BA95C9F700976105710530
S113161008959B01AC010A2E06945795479537957A
S11316202795BA95C9F7620F731F841F951FA01DD4
S113163008952F923F924F925F926F927F928F9272
S11316409F92AF92BF92CF92DF92EF92FF920F934D
S11316501F93CF93DF93CDB7DEB7CA1BDB0B0FB657
S1131660F894DEBF0FBECDBF09942A883988488814
S11316705F846E847D848C849B84AA84B984C884AA
S1131680DF80EE80FD800C811B81AA81B981CE0FA1
S1131690D11D0FB6F894DEBF0FBECDBFED01089586
S10716A0F894FFCFE8
S11316A449444C450D0A00425554544F4E20657626
S11316B4656E7420617420256C640D0A00456E7493
S11316C46572696E672073656C662D63616C69620B
S11316D4726174696F6E2070726F636573732E0D1B
S11316E40A004C494D4954207472696767657265F0
S11316F4642061742073746172742075702E0D0AF1
S113170400476F696E67206261636B2E2E2E00445E
S11317146F6E652E0D0A004D6F76696E6720666FD5
S1131724727761726420746F2063616C69627261A0
S113173474652E2E2E0D0A004572726F722077681E
S1131744656E2063616C6962726174696E672E0DE3
S11317540A506C65617365207265737461727420D8
S113176473797374656D2E0D0A0043616C6962723A
S11317746174696F6E2066696E69736865642E208E
S1131784506F736974696F6E203D20256C640D0A73
S113179400427574746F6E20507265737365640DC2
S11317A40A004155544F5F464F52574152440D0A63
S11317B4004C696D697420726561636865642E20E8
S11317C4506C6561736520757365206D616E756118
S11317D46C206D6F64652E0D0A004155544F5F42B1
S11317E441434B574152440D0A004D414E55414C1F
S11317F45F464F52574152440D0A004D414E5541E4
S11318044C5F4241434B574152440D0A00427574A4
S1131814746F6E2052656C65617365640D0A0053C0
S1131824706565642061742025640D0A00506F732B
S113183420617420256C640D0A004C696D69742060
S10F18447472696767657265640D0A00C0
S9030000FC
