S01D00004175746F6D617469635F4578666F6C696174696F6E2E737265637F
S11300000C9434000C9489080C94A3010C945100B2
S11300100C9451000C9451000C9451000C9404085D
S11300200C9451000C9451000C9451000C94510008
S11300300C9451000C9451000C9451000C945100F8
S11300400C9488000C9451000C9451000C94F5000D
S11300500C9451000C9422010C9451000C94510006
S11300600C9451000C94510011241FBECFEFD8E022
S1130070DEBFCDBF12E0A0E0B1E0EAE9F7E102C0E3
S113008005900D92A23FB107D9F727E0A2EFB2E0A5
S113009001C01D92A632B207E1F70E94AD080C948C
S11300A0CB0B0C940000FC0140814423E1F0319619
S11300B020E030E0A0910203B0E0A75EBA4F4C9379
S11300C0809102038F5F80930203809102032F5F6C
S11300D03F4F41914111EECF232B29F0E1ECF0E0A9
S11300E08081886280830895CF93DF93CDB7DEB794
S11300F0FE01359661917191AF0181E193E00E9417
S1130100000981E193E00E945300DF91CF910895AB
S11301101F920F920FB60F9211242F933F934F9378
S11301205F936F937F938F939F93AF93BF93EF935B
S1130130FF938091190790911A0740910C035091F5
S11301400D0360910E0370910F03AA2797FDA095EC
S1130150BA2FBA2FA92F982F8827840F951FA61F6F
S1130160B71F80930C0390930D03A0930E03B093D9
S11301700F0380910C0390910D03A0910E03B09195
S11301800F03BB2324F48091FD02813089F0809118
S11301900C0390910D03A0910E03B0910F038136CF
S11301A09142A046B10584F08091FD02823061F451
S11301B01092FD024F9908C080E091E09F938F93C5
S11301C00E9474000F900F90FF91EF91BF91AF9137
S11301D09F918F917F916F915F914F913F912F915B
S11301E00F900FBE0F901F9018951F920F920FB68D
S11301F00F9211248F939F93EF93FF939091030396
S113020080910203981781F0E0910303F0E0E75E28
S1130210FA4F80818093C600809103038F5F80939F
S113022003038091030305C0E1ECF0E08081877D46
S11302308083FF91EF919F918F910F900FBE0F904C
S11302401F9018951F920F920FB60F921124AF9220
S1130250BF92CF92DF92EF92FF920F931F932F934F
S11302603F934F935F936F937F938F939F93AF933A
S11302702091040330910503409106035091070334
S1130280609108037091090380910A0390910B0314
S1130290A090F402B090F502C090F602D090F7025C
S11302A0E090F802F090F9020091FA021091FB023A
S11302B00E94EB08A2E30E94F40879F170F1209106
S11302C078008091790030E0382B8FEF93E0821B27
S11302D0930B909301038093000370910403609146
S11302E005035091060340910703309108032091C0
S11302F0090390910A0380910B037093F4026093B5
S1130300F5025093F6024093F7023093F8022093DB
S1130310F9029093FA028093FB02AF919F918F911F
S11303207F916F915F914F913F912F911F910F9109
S1130330FF90EF90DF90CF90BF90AF900F900FBEE3
S11303400F901F9018951F920F920FB60F921124C1
S11303502F933F934F935F936F937F938F939F93C9
S1130360AF93BF93EF93FF934F9926C080910403FB
S113037090910503209106033091070340910803EF
S11303805091090360910A0370910B037F936F935B
S11303905F934F933F932F939F938F9387E091E0C5
S11303A09F938F930E9474008DB79EB70A960FB6E1
S11303B0F8949EBF0FBE8DBF8091FF02882319F071
S11303C0833039F14BC04B9949C07091040360915B
S11303D005035091060340910703309108032091CF
S11303E0090390910A0380910B0370931D07609396
S11303F01E0750931F074093200730932107209333
S11304002207909323078093240781E08093FF02BF
S113041025C04B9B23C07091040360910503509148
S1130420060340910703309108032091090390913A
S11304300A0380910B0370931D0760931E0750936A
S11304401F0740932007309321072093220790939E
S113045023078093240782E08093FF02FF91EF91AA
S1130460BF91AF919F918F917F916F915F914F91C8
S11304703F912F910F900FBE0F901F901895219AC6
S1130480209A399A3A9A529853983B9838985598A2
S11304905798299A289A5F9A4198429884B584BDBE
S11304A085B5866085BDEEE6F0E08081816080835D
S11304B016BCE0E8F0E0808180648083E1E8F0E04D
S11304C08081886080831092850010928400E0EB24
S11304D0F0E0808182608083E1EBF0E080818460E1
S11304E08083E0E7F0E080818260808389EF8093FD
S11304F0B3001092B200E9E6F0E080818660808368
S11305008DB383608DBB87E68093C4001092C500D1
S1130510ECE7F0E0808180648083EAE7F0E08081AA
S11305208F6A8083EBE7F0E08081808310920C0374
S113053010920D0310920E0310920F031092FD02FD
S113054081E08093F20278942FEF83ED90E32150C1
S113055080409040E1F700C0000080910403909136
S1130560050320910603309107034091080350913D
S1130570090360910A0370910B037F936F935F9358
S11305804F933F932F939F938F938DE191E09F938C
S11305908F930E9474008DB79EB70A960FB6F89495
S11305A09EBF0FBE8DBF0895F8944198429A2FEFD5
S11305B081EE94E0215080409040E1F700C00000BB
S11305C0419842982FEF81EE94E021508040904072
S11305D0E1F700C00000E9CF8F929F92AF92BF92E3
S11305E0CF92DF92EF92FF920F931F93CF93DF93FB
S11305F088E391E09F938F930E9474000F900F9073
S11306004A9933C08DE591E09F938F930E947400C3
S113061084E08093FD028CE791E09F938F930E9486
S113062074000F900F900F900F904A990BC01FEF1A
S113063021EE84E0115020408040E1F700C000002A
S11306404A9BF5CF9FEFE9E618E19150E040104056
S1130650E1F700C000008BE891E09F938F930E9424
S113066074001092FD020F900F902FEF83ED90E332
S1130670215080409040E1F700C0000083E991E000
S11306809F938F930E9474008090040390900503BD
S1130690D0910603C0910703B0910803A091090308
S11306A0F0910A03E0910B0383E08093FD020F9025
S11306B00F9020910403309105034091060350915B
S11306C00703609108037091090380910A039091D4
S11306D00B03A82CB92CCD2EDC2EEB2EFA2E0F2FCB
S11306E01E2F0E94EB082F333C494105510561053B
S11306F071058105910509F020F48091FD028111B5
S1130700D8CF209104033091050340910603509102
S11307100703609108037091090380910A03909183
S11307200B03A82CB92CCD2EDC2EEB2EFA2E0F2F7A
S11307301E2F0E94EB082F333C49410551056105EA
S113074071058105910509F100F1E1E8F0E080818E
S1130750887F808384EB91E09F938F930E94740041
S11307608091FD021F928F9386EE91E09F938F9369
S11307700E9474001FEF21EE84E01150204080405D
S1130780E1F700C000000E94D40281E08093F302EC
S113079016BC8FE19EE40197F1F700C00000809140
S11307A00C0390910D03A0910E03B0910F03BF931E
S11307B0AF939F938F9387EF91E09F938F930E94C2
S11307C074001092F2020F900F900F900F900F9000
S11307D00F90DF91CF911F910F91FF90EF90DF90D9
S11307E0CF90BF90AF909F908F9008954F9908C07D
S11307F08EE192E09F938F930E9474000F900F906C
S11308008091F2028111CBC08091FD02882321F0F6
S1130810833008F0C4C0B7C0339997C04E9B4AC018
S11308204A9B3DC080910C0390910D03A0910E034F
S1130830B0910F03BB239CF181E08093FD02709182
S1130840040360910503509106034091070330911E
S113085008032091090390910A0380910B0370937C
S113086011056093120550931305409314053093BA
S1130870150520931605909317058093180582E0BB
S11308808093FE02419A42984F9989C08FE292E088
S11308909F938F930E9474000F900F9008954F9927
S11308A07EC08EE392E09F938F930E9474000F901A
S11308B00F90089580910C0390910D03A0910E0365
S11308C0B0910F0381369142A046B1059CF582E0B8
S11308D08093FD0270910403609105035091060317
S11308E040910703309108032091090390910A0372
S11308F080910B03709311056093120550931305B7
S1130900409314053093150520931605909317050D
S11309108093180581E08093FE024198429A4F9992
S11309203EC087E692E09F938F930E9474000F90DD
S11309300F9008954F9933C08EE392E09F938F9365
S11309400E9474000F900F9008954E9B0EC083E098
S11309508093FD024F9923C087E792E09F938F9382
S11309600E9474000F900F90089584E08093FD021C
S11309704F9915C088E892E09F938F930E9474006A
S11309800F900F9008951092FD024F9908C080E0D7
S113099091E09F938F930E9474000F900F9008959D
S11309A04F9908C08AE992E09F938F930E94740044
S11309B00F900F908091F202811111C08091FD027D
S11309C08350823060F41092FD024F9908C080E099
S11309D091E09F938F930E9474000F900F9008955D
S11309E0AF92BF92CF92DF92EF92FF920F931F9339
S11309F08091FE02813009F426C120F0823009F48E
S1130A00C1C07FC18091FD028230B1F020F48130F9
S1130A1009F465C076C1833049F0843009F071C1AE
S1130A2081E08093FE024198429A6BC182E08093F8
S1130A30FE02419A429865C1209104033091050356
S1130A4040910603509107036091080370910903D4
S1130A5080910A0390910B03A0901105B0901205A8
S1130A60C0901305D0901405E0901505F09016057C
S1130A7000911705109118050E94EB082B323140A4
S1130A8041055105610571058105910509F008F4D9
S1130A9038C181E08093FE027091040360910503E4
S1130AA050910603409107033091080320910903F4
S1130AB090910A0380910B037093110560931205C2
S1130AC05093130540931405309315052093160590
S1130AD090931705809318054198429A12C120916A
S1130AE0040330910503409106035091070360917C
S1130AF008037091090380910A0390910B03A0905D
S1130B001105B0901205C0901305D0901405E09023
S1130B101505F090160500911705109118050E940F
S1130B20EB082B3231404105510561057105810502
S1130B30910509F008F4E5C082E08093FE0270910B
S1130B40040360910503509106034091070330911B
S1130B5008032091090390910A0380910B03709379
S1130B6011056093120550931305409314053093B7
S1130B701505209316059093170580931805419A3F
S1130B804298BFC08091FD02813009F052C020918B
S1130B9004033091050340910603509107036091CB
S1130BA008037091090380910A0390910B03A090AC
S1130BB01105B0901205C0901305D0901405E09073
S1130BC01505F090160500911705109118050E945F
S1130BD0EB082B3231404105510561057105810552
S1130BE0910509F008F48DC01092FE02709104037F
S1130BF06091050350910603409107033091080367
S1130C002091090390910A0380910B0370931105BD
S1130C106093120550931305409314053093150502
S1130C2020931605909317058093180541984298D0
S1130C3068C08091FD02833009F463C01092FE0203
S1130C40419842985EC08091FD02823009F051C003
S1130C50209104033091050340910603509107034A
S1130C60609108037091090380910A0390910B032A
S1130C70A0901105B0901205C0901305D0901405F2
S1130C80E0901505F09016050091170510911805D0
S1130C900E94EB082C323140410551056105710574
S1130CA08105910571F168F11092FE0270910403BF
S1130CB060910503509106034091070330910803A6
S1130CC02091090390910A0380910B0370931105FD
S1130CD06093120550931305409314053093150542
S1130CE02093160590931705809318054198429810
S1130CF008C08091FD02843021F01092FE024198D8
S1130D0042988091FF02813019F0823099F163C0DA
S1130D102091040330910503409106035091070389
S1130D20609108037091090380910A0390910B0369
S1130D30A0901D07B0901E07C0901F07D0902007F9
S1130D40E0902107F09022070091230710912407D7
S1130D500E94EB08A9E00E94F408E9F1E0F14B9944
S1130D6006C083E08093FF020E94F60334C0109211
S1130D70FF0231C020910403309105034091060322
S1130D8050910703609108037091090380910A034D
S1130D9090910B03A0901D07B0901E07C0901F07F1
S1130DA0D0902007E0902107F090220700912307BC
S1130DB0109124070E94EB08A9E00E94F40859F05E
S1130DC050F04B9B05C01092FF020E94D00403C058
S1130DD083E08093FF0289B185FB882780F991E045
S1130DE08927809325079091FD028091FC02981336
S1130DF01AC0209100033091010380911B07909148
S1130E001C07281B390BC901992324F48827992727
S1130E10821B930B0B973CF4909125078091100350
S1130E20981709F4E8C080912507882339F080E8F1
S1130E3090E090931A078093190706C081E090E030
S1130E4090931A07809319078091FD028230C9F0AC
S1130E5030F4882309F45FC0813031F0BCC08330A2
S1130E6019F0843071F0B7C02898809119079091D7
S1130E701A0791958195910990931A078093190700
S1130E8009C0289A8091190790911A0790931A071C
S1130E9080931907809125078823E1F020910003AE
S1130EA030910103ACE1BCE00E94C908462F572FE2
S1130EB0682F792F032E3AE07595679557954795D6
S1130EC03A95D1F7302D40575E4F509389004093A7
S1130ED088001BC02091000330910103A4EEB3E00D
S1130EE00E94C908462F572F682F792F032E3AE006
S1130EF075956795579547953A95D1F7302D4C5F81
S1130F005F4F5093890040938800E1E8F0E08081CE
S1130F108260808360C0E1E8F0E08081887F808324
S1130F2026B5A0911907B0911A07C0900C03D09070
S1130F300D03E0900E03F0900F0330E00E94D808F8
S1130F40C60ED71EE81EF91EC0920C03D0920D03E4
S1130F50E0920E03F0920F0316BC8091F3028823F3
S1130F6091F01092F30210920C0310920D03109260
S1130F700E0310920F038CEA92E09F938F930E94CA
S1130F8074000F900F904F9926C0809100039091A8
S1130F9001039F938F938EEB92E09F938F930E9414
S1130FA0740080910C0390910D03A0910E03B091F5
S1130FB00F03BF93AF939F938F938CEC92E09F9317
S1130FC08F930E9474008DB79EB70A960FB6F8945B
S1130FD09EBF0FBE8DBF8091FD028093FC02809165
S1130FE000039091010390931C0780931B07809149
S1130FF02507809310031F910F91FF90EF90DF90CE
S1131000CF90BF90AF9008951F920F920FB60F929A
S113101011242F933F934F935F936F937F938F93F9
S11310209F93AF93BF93EF93FF9320910403309169
S113103005034091060350910703609108037091E2
S1131040090380910A0390910B03A1E00E94DF0839
S1131050209304033093050340930603509307033E
S1131060609308037093090380930A0390930B031E
S11310700E94F004FF91EF91BF91AF919F918F91E6
S11310807F916F915F914F913F912F910F900FBE80
S11310900F901F9018954F9926C08091040390914A
S11310A005032091060330910703409108035091F2
S11310B0090360910A0370910B037F936F935F930D
S11310C04F933F932F939F938F9389ED92E09F9338
S11310D08F930E9474008DB79EB70A960FB6F8944A
S11310E09EBF0FBE8DBF8091FD02813011F0833011
S11310F079F41092FD0281E08093F3024F9908C0C5
S113110080E091E09F938F930E9474000F900F9062
S113111008951F920F920FB60F9211242F933F93AD
S11311204F935F936F937F938F939F93AF93BF93EB
S1131130EF93FF930E944B08FF91EF91BF91AF9102
S11311409F918F917F916F915F914F913F912F91DB
S11311500F900FBE0F901F9018950E943F020E949F
S1131160EC02EAE7F0E08081806480832CE088E18F
S113117090E00FB6F894A895809360000FBE20937A
S11311806000A8958FE19EE40197F1F700C000008C
S1131190F8CFA29FB001B39FC001A39F700D811D22
S11311A01124911DB29F700D811D1124911D08956C
S11311B00E94C908B7FF0895821B930B0895002469
S11311C0A7FD00942A0F301D401D501D601D701D89
S11311D0801D901D08952A193B094C095D096E096B
S11311E07F09800B910B08950024A7FD00942A1712
S11311F0300540055005600570058005900508958B
S1131200AEE0B0E0E6E0F9E00C94A20B8C0186E0DD
S11312108C831A8309838FEF9FE79E838D83CE018E
S113122001960E941C09EF81F885E00FF11F1082DE
S11312302E96E4E00C94BE0BACE0B0E0E2E2F9E000
S11312400C94940B7C016B018A01FC0117821682B9
S1131250838181FFBDC1CE0101964C01F7019381C9
S1131260F60193FD859193FF81916F01882309F421
S1131270ABC1853239F493FD859193FF81916F0160
S1131280853229F4B70190E00E94040BE7CF512C7A
S1131290312C20E02032A0F48B3269F030F480321B
S11312A059F0833269F420612CC08D3239F08033D7
S11312B039F4216026C02260246023C0286021C044
S11312C027FD27C030ED380F3A3078F426FF06C0EA
S11312D0FAE05F9E300D1124532E13C08AE0389E2D
S11312E0300D1124332E20620CC08E3221F426FDE1
S11312F06BC1206406C08C3611F4206802C08836A5
S113130041F4F60193FD859193FF81916F01811161
S1131310C1CF982F9F7D9554933028F40C5F1F4FB5
S1131320FFE3F9830DC0833631F0833771F08335E1
S113133009F05BC022C0F801808189830E5F1F4FD2
S113134044244394512C540115C03801F2E06F0E2B
S1131350711CF801A080B18026FF03C0652D70E0E8
S113136002C06FEF7FEFC5012C870E94F90A2C01A0
S113137083012C852F77222E17C03801F2E06F0EDF
S1131380711CF801A080B18026FF03C0652D70E0B8
S113139002C06FEF7FEFC5012C870E94EE0A2C017B
S11313A02C852068222E830123FC1BC0832D90E012
S11313B048165906B0F4B70180E290E00E94040B8D
S11313C03A94F4CFF50127FC859127FE81915F01C2
S11313D0B70190E00E94040B31103A94F1E04F1AE7
S11313E051084114510471F7E5C0843611F089366F
S11313F039F5F80127FF07C06081718182819381EB
S11314000C5F1F4F08C060817181882777FD80952C
S1131410982F0E5F1F4F2F76B22E97FF09C090951D
S11314208095709561957F4F8F4F9F4F2068B22EA6
S11314302AE030E0A4010E94360BA82EA81844C06C
S1131440853729F42F7EB22E2AE030E025C0F22F12
S1131450F97FBF2E8F36C1F018F4883579F0B4C007
S1131460803719F0883721F0AFC02F2F2061B22EBA
S1131470B4FE0DC08B2D8460B82E09C024FF0AC0B1
S11314809F2F9660B92E06C028E030E005C020E109
S113149030E002C020E132E0F801B7FE07C060810D
S11314A07181828193810C5F1F4F06C060817181BD
S11314B080E090E00E5F1F4FA4010E94360BA82E1F
S11314C0A818FB2DFF77BF2EB6FE0BC02B2D2E7F49
S11314D0A51450F4B4FE0AC0B2FC08C02B2D2E7E15
S11314E005C07A2C2B2D03C07A2C01C0752C24FF47
S11314F00DC0FE01EA0DF11D8081803311F4297EB7
S113150009C022FF06C07394739404C0822F8678A6
S113151009F0739423FD13C020FF06C05A2C7314E2
S113152018F4530C5718732C731468F4B70180E241
S113153090E02C870E94040B73942C85F5CF7314D0
S113154010F4371801C0312C24FF12C0B70180E316
S113155090E02C870E94040B2C8522FF17C021FFEA
S113156003C088E590E002C088E790E0B7010CC0B2
S1131570822F867859F021FD02C080E201C08BE2FF
S113158027FD8DE2B70190E00E94040BA51438F406
S1131590B70180E390E00E94040B5A94F7CFAA9419
S11315A0F401EA0DF11D8081B70190E00E94040B63
S11315B0A110F5CF332009F451CEB70180E290E0B9
S11315C00E94040B3A94F6CFF7018681978102C0FA
S11315D08FEF9FEF2C96E2E10C94B00BFC01059089
S11315E0615070400110D8F7809590958E0F9F1F21
S11315F00895FC016150704001900110D8F7809566
S113160090958E0F9F1F08950F931F93CF93DF9391
S1131610182F092FEB018B8181FD03C08FEF9FEF02
S113162020C082FF10C04E815F812C813D81421712
S113163053077CF4E881F9819F012F5F3F4F398381
S11316402883108306C0E885F985812F0995892BA5
S113165029F72E813F812F5F3F4F3F832E83812FB8
S1131660902FDF91CF911F910F910895FA01AA272E
S1131670283051F1203181F1E8946F936E7F6E5FD1
S11316807F4F8F4F9F4FAF4FB1E03ED0B4E03CD07F
S1131690670F781F891F9A1FA11D680F791F8A1F62
S11316A0911DA11D6A0F711D811D911DA11D20D0C9
S11316B009F468943F912AE0269F11243019305D83
S11316C03193DEF6CF010895462F4770405D419374
S11316D0B3E00FD0C9F7F6CF462F4F70405D4A33C1
S11316E018F0495D31FD4052419302D0A9F7EACF89
S11316F0B4E0A6959795879577956795BA95C9F7B8
S113170000976105710508959B01AC010A2E0694AA
S11317105795479537952795BA95C9F7620F731F63
S1131720841F951FA01D08952F923F924F925F92A0
S11317306F927F928F929F92AF92BF92CF92DF92DD
S1131740EF92FF920F931F93CF93DF93CDB7DEB742
S1131750CA1BDB0B0FB6F894DEBF0FBECDBF0994D6
S11317602A88398848885F846E847D848C849B842D
S1131770AA84B984C884DF80EE80FD800C811B813B
S1131780AA81B981CE0FD11D0FB6F894DEBF0FBE6A
S10D1790CDBFED010895F894FFCFDA
S113179A49444C450D0A00425554544F4E2065762F
S11317AA656E7420617420256C640D0A000D0A0D9F
S11317BA0A53797374656D20737461727465642055
S11317CA61742025640D0A00456E746572696E673A
S11317DA2073656C662D63616C6962726174696FEA
S11317EA6E2070726F636573732E0D0A004C494D37
S11317FA495420747269676765726564206174204C
S113180A73746172742075702E0D0A004D6F7669B7
S113181A6E67206261636B2E2E2E00446F6E652EF6
S113182A0D0A004D6F76696E6720666F7277617272
S113183A6420746F2063616C6962726174652E2E10
S113184A2E0D0A004572726F72207768656E2063E6
S113185A616C6962726174696E672E0D0A506C65F7
S113186A6173652072657374617274207379737419
S113187A656D2E0D0A004572726F7220737461745D
S113188A653A2025640A0043616C6962726174696D
S113189A6F6E2066696E69736865642E20506F7373
S11318AA6974696F6E203D20256C640D0A004275C7
S11318BA74746F6E20507265737365640D0A004107
S11318CA55544F5F464F52574152440D0A004C69D2
S11318DA6D697420726561636865642E20506C6555
S11318EA61736520757365206D616E75616C206D19
S11318FA6F64652E0D0A004155544F5F4241434BB4
S113190A574152440D0A004D414E55414C5F464FD2
S113191A52574152440D0A004D414E55414C5F42C3
S113192A41434B574152440D0A00427574746F6E19
S113193A2052656C65617365640D0A00506F7369A2
S113194A74696F6E207A65726F65640D0A0053704C
S113195A6565642061742025640D0A00506F732044
S113196A617420256C640D0A004C696D69742074D5
S113197A72696767657265642061742025640D0A5B
S105198A000057
S9030000FC
